:1000000020200020FD000000ED010000ED010000B7
:1000100000000000000000000000000000000000E0
:10002000000000000000000000000000ED010000E2
:100030000000000000000000ED010000ED010000E4
:10004000ED010000ED010000ED010000ED010000F8
:10005000ED010000ED010000ED010000ED010000E8
:10006000ED010000ED010000ED010000ED010000D8
:10007000ED010000ED010000ED010000ED010000C8
:10008000ED010000ED010000ED010000ED010000B8
:10009000ED0100000000000000000000ED01000084
:1000A000ED010000ED010000ED010000ED01000098
:1000B0000000000010B5064C2378002B07D1054B3B
:1000C000002B02D0044800E000BF0123237010BDC4
:1000D00000000020000000007C020000044B10B56E
:1000E000002B03D00349044800E000BF10BDC04608
:1000F00000000000040000207C02000080B582B0F7
:1001000000AF2F4B7B602F4B3B607A683B689A4275
:100110000CD007E07A68131D7B603B68191D3960BD
:1001200012681A603A68284B9A42F3D3274B3B6017
:1001300004E03B681A1D3A6000221A603A68244BBA
:100140009A42F6D3234B7B607A68234BFF218A4384
:100150009A60224A90235B000221D150204AD37832
:1001600003218B43191C02230B43D3701C4AD37801
:100170000C218B43191C08230B43D370194A937B22
:1001800030218B43191C20230B439373154A937B17
:100190000C218B43191C08230B439373114A937B47
:1001A00003218B43191C02230B4393730E4A53689C
:1001B00080210B43536000F029F800F01AF8FEE7A5
:1001C0007C02000000000020000000200000002051
:1001D0001C0000200000000000ED00E00070004165
:1001E00000500041004800410040004180B500AF90
:1001F000FEE780B582B000AFFB1D00221A70FB1D28
:100200001A78FB1D01321A70F9E7000070B500265C
:100210000C4D0D4C641BA410A64209D1002600F021
:1002200019F80A4D0A4C641BA410A64205D170BDF2
:10023000B300EB5898470136EEE7B300EB58984708
:100240000136F2E760020000600200006002000078
:1002500064020000F8B5C046F8BC08BC9E46704772
:10026000DD000000F8B5C046F8BC08BC9E467047EB
:04027000B5000000D5
:080274007EFFFF7F0100000086
:00000001FF
